114107132313MICHIGA 10001CONYERS    7966161161661616111661611116666661616661666166111611166616661119111611666161661616611661116661161116661611961611999999616111666611666111161666911116616616616161616611611611611616666961111116616661616611116666666661611161616166116616161611611166666116616111161699911166161166611661191111619166666169901666116166666661666666616111661161111166661691111616116116616669161161666666116611166611111611111111111111666661111111661166661666611111166111999199966611111611161619999999999999999966111161661611669166616611111116111691661661619616699666166616611161116666616111116666166111616117919611661611166166166661666666966666611661111111666166166661616116616666661616911616161661161666666166616616166161111111666117666661111161111111666111111111161169111169099166611669611169161661116161116666161116611666111666611691116616691166111111161116661661111611166666666611611666616666611166999661611611661111116661116696666616666611116166666161661666166669161666166161616611166616666611666111169161111166666111616166611661166661111166666666616166611111619996666666666661166611616111161111111661166666666666666666661161611116666666111119911111111661111111111166661666616666666616666661116611111111166116611161666116161166666116616161191111166111666611111116611111666111111111611616666666616111166111166111161699611666661661111111166116111661111
114130351313NEW YOR 10001RANGEL     9900000161661616111661611116666661616661666166111611166916961116111611661161661616111669116661161116661611161611111661616111666611166111161666611116616616616161616611611611111619666161111116616661616616166666666661616161616661166616166611611161661116616111161616611196161166611611161111616166666166601666116166666661666666616161661161111116661611111116116116616661161161666666116611166611111666111111111111666611111111661169661666611111166161161161166699999911161616999999999999999966111169661611666166616911111116111611661661616616611666166616611161116666616111116666166111616117916611661116666666161661666666666666661666111611666116166661616116611666661616911116166661161666661166616699966161111911666117666661111161111111666111111111161166111161061166611666611116161661116161116666161116611666111666611611116616911166111111161116669999999991166666616699911666616666611166161661611611661111116611116696666116666611116166666161661669966661161666166161616611666116666619666111166161111166666111616166611661166661111166666666616166611111616116666666666661166611616111111111111661166666666666666666611161611116696666111111611111111661111111111166661666616661666666666661111611111111166116611961666116161166666116616161111111166111666611111116611111666111111111611996666616616111116111166111161611619966611611111111166116111661111
1141406681 1ALASKA  20001YOUNG      9900000000000000111116166661111116161116191611119999999999999999999911116611116161611111611116166661116161166661111999999666199111111116666611911111161169911616111166166166111111111616666166661166166666666119991116116611161111961161116166111111661611161666616161166611666111666661661111111116111616606666661616661116161111166116111666666616666616666666661161196661116616111911111166619996111166166666666666611111666166616616116111661111111611616611111666666161616161111111116666666111111611116111111611161116166161666111116111111161111111611161611611111111161666661111111116111169911116116666161611661666166666666166116111116111111111611116161111111111116161666661111116611977971111111111111611111111111617111116666616666666111999999999991111666611011111661111166661611111661616661111611111166111666111166111711161611111116666611119111111116111111111161166111111161111111111611611116111111111111111111161991161111166666616666116666111111111611111616666161666611661666196111111111116669611111616661611111111611116166616111111661611166666111111199999999999911111166666666666666116611611111111111111166116111111991111166666166666666166666666666661116111166116111611111116661166666666611111166616111161611111111111161616661611619111111111116661111116111111111116111111111161116116111111111666616111111111116111111111111111111116161
1141426333 8MINNESO 10001NOLAN      9900000000661611116666611116666661616661666166111611166616961116111611666111661111111661116666111116666611161611111661616111666661666161161666111116616116616161696611611611611616666661111116616661616611116666666161611161616161116616161611611161661116616111161111699996661166611611111111616166666166606666116166666661666616616111661661111111111111111616116111666661161161666616116611166611111611111111111611666611111111661166661166611191166111999991166611111611161616111661661111111666111161661611666166616611111116111611661661616616611666116616611161116666616111111666166111611117916611661161666166116661666669666666661661111611661166161661611116611666661616111116161161161666661166619699999991111111661617666661111161111111666199111111161166111161061166611666611116161661116161116661161116611666111661611111116616611166111111161116669999991611166666616611611666616661111166111661616611661199996661996611666116666611116166661161661616166661111666166161611611166116666611666111166161111166666161616166611661166611111116666666116161111111119996666666666661166611616111111111111661166666666666666666611161611999999999999999911161111661611111111166661666616661666666666661111611111111166116611161666116169966661116666161111111166111666611111116611111661111111111611616666616616111116111166111161611691166661611111111166116119661111
1141465725 5WISCONS 20001SENSENBR   7911611616116161111111166661111116161116111611116111611161116661666116111611116161111111611111616661111166116166661111161666111116111116616166161111161161111616111116166116111111111111166661161116161111111111111116616611161111161161116166111111111661161666666161166611116111161116611661111111111661106111666611661111111116161616611116166111166111116166661161116111116611111111611166611116111166666666666666111116666666116666116111166111111661616661111166666166616161111111116666666111166611116111111611161116666661666111116111161161111111611161111611111111161666661111611666161167911116166666616611661111111111111111116111116111111111611116161161111111116111666611111116611666661111161111611611111111111117111116666616666666111666666666611111666611016611161111166661616111661616661111611111166111666111166111111111111111116666611111111111116116111111161166111111161111111111611111116111111161111111111161111661111166166611111616116116111116611116611666161166611161111166611111111116666611111616161611111116611116161116111111611111116661111111111111111111111161161666616666666116611111111111111111166116111666661111666666166666666111666666666611116111161116111611111116666166666666611111166616111161611111111111111616661111611111111111116661111111111111111166111111111111111166661611111666616111111116116111161116111111161111166
1141485451 5KENTUCK 20001ROGERS     7911611111116161111111166661111116161116111611116111111161116661666111111611116161111111611111666661111161161661111111161666191111111116666611111111161161111619111166166116111111111116666661161166161666666611161116116611161111161161116166111111161611161666616161166611166111666666666666161116111616106666661616166116661161161616111116666666666616666666666661111111116616111191111166611111111166666666666666611119666666616616116111661111111611616611111166666166616161111111116666666111116611116111111611161116166661666111116111111161111111611161611611111111161666661111611116111117911116166666666611661166166666666666616111116111111111611116161111111111116161666661111116611666661111111111111611111911911117111116666616666666111666666666611111616911011111161111169661611111661616661111611111166199666111166111191111111111116666611111111111116111111111161166111111161111991111611111116111111161111111111161111691116166666616666616116111111111611111616666161666611661666166111111111116666611111616661611111111611166666661111111661616666666111111111111111111111111966666666666666116611611111111111111166116111111661111166666166666666166666666666661116111161116161611611116661166666666611111166666111161611111111111111616661111611111111111116661111111111111111116111111111111111116111111111666616111111111116111111116111111111111161
1141486312 4NEW JER 20001SMITH      7911611111116161111111166661161116161116111611116111111161116661666111111611116161111111611111666161111161191661999111161666111611111116666611111111161161111616111116116116111111111116666666661166666666666611166666116611161111161161116666111111161611161666616161166611161111666616666166161116111619601666161116166666661111161616611116666616666616666666666161116661116616111611111166611111111166611666666666616116666666116616116111661111111611616619111166666161166161111111116666666111111611116111111611161116166661666111116111161161111111611161691661111111161666661111611116111167911116666666616111616661666666666111116111116111111161611116161111111111111161666666111116611669661111111111111661111111111117111116666616666666111666666666611111966661069111161111166661611111661616661111611111166111666116116111111111111111119666661111111111116111111111161166111111161111111111611111116111111161111111111161111161116166666616666611666111111111611111666666161666611161666166111111191116666661111116666611111111611116666616111661666616111666111111111111111111111111961666666666666116611111111161111111166116111111691119166666116611616666616666666111116161616661666661666661616116666661111111166666111161611111111111111616691111611111111111116661111111119111111116111111111111116116161111111666616111111111116111111116111111119111191
1141487352 5MARYLAN 10001HOYER      7966161161661616116666611116666661616991666166111111166616661116111611669999661616611661166666161116666611161611111661616111666661166166161666111116616616616161616611611111111616666661111116616661616616116669999999911161616161166616166619611161666116616111161616611166661166616611161111616166666166601666116166666661666666616161661661111116666616666616116116611661161166666666116611166611111611111111111111666111111111661166661666611111166111161161166611111661166616111661661111119666111161661699666166616611111116111611661661616616611666166616611161116666616111116666166111611117916611661111666166166661666666666666611666111611666169166661616116611666661616111116161661161666661196616616166161111111666617666661111161111111666111111111161166111161061166611666611116161661116161116666161116699999999999999911116619911166111111961116661661111611166666616611691666699961111166111661611611661111116661119616666616666666616166666161661666166661161666166161616611666116666611666999966161111166666111616166611661166661661166666666616166616666619996666666666661166611616111161111111661166666666666666666661161611111666666111119911161111661111111111166661666616661666666666661111611111111166116611161666116169166666116666161111111166111666611111116111111666111111111611616666616616111116111166111161611611166611611111111166116111661111
1141501954 5TENNESS 10001COOPER     7966161161661611111661616116666661616661666166111111166116661616161111611111661616111661116661116116661611161611111661616611666611166116666666669996611116611161616611611111111616666161111116616661616661166666616661616111616161166611166611111161611116616111161611611166161166611111161161611666666161601666116161666661666666616161661116111116166611666666616611111111111116661166116611166111111666111111111161166111111111661166661661611111166161161161166111111661616611111661661111111666191161661611666166616611111116111611661661616616611666116611611611116666616111116666166111611117916116661111666161111661166666666666611661111611661166111661611116611661661616661111161661161666661166616616166611111111166117666661111661111161666116111111161166111161011161611666611611161661116166111661161116699999999999999911116111111166111111161116661661111611166666616111611616661611111161611661611611611161116111116616666611666666666116666161661611161661161666166161616661666116166611666111166161111166166116116116611661666666661166666666666166166666116116666666666661166111966111161116611666661166666166666666611161611111666666111111611611111661111116111116661666666666666666666661161666111116166116666666166116111166666116611111111911116111666611111116611111666111111111611116666166616111116111166111161611611166611111111111166116111661111
1141502924 9OHIO    10001KAPTUR     7966161161661616119666611116666661616661666666111611166116661116111611661999999916111661166661161116691611161611999661616999966611166111161666111116616616616161616611611199911616666161191116616666616611116666666661611161616161166616166661611161661116616111161616699996161169999611161111616166666166601666116166666661666666616111661161111166666611111616116996616661161161666666116611166611111611911111111111666111111111661166661666661111166161161161166111911699999999111661661111111666111161661611666166616611111111111611661661616616619666166616911161116666616111111666166111611117916616661111666166166661666666666666611661111611666166161661611116611666661611111116161661161666661166616616166161111111661117666661111161111111666111111111161196111161069966611666616116161661116161116666161116661666111666611611116616199966111111161116669661111611166666616611611666616661111166961661611611611111116611116616696616666616616166666161661666166661161666166111696611666616666611666111166161111166666111616166611661166661611166666666616666616111666116666669999999966611616111116111111661166666666666666666611161611111666666111111616161111661111111111166661666616611666666666661111611111111166116611161666116169166666116616161111111116999666611111116611111666111111111611616666666616111116111166111161691611166661611111111166116111661611
1141503323 9MICHIGA 10001LEVIN      7966161161661616111666611116666661616661666166111611166116961116111611666161661616611661116661166116666611161611111661616111666661166116661666111116616616616161616611611111111616666661111616616661616611116666666661611161616161166616166611611161666116616111161616611166661166611611166161616166666166601666116166666661666666616161661661111116666611111616116116666661161166666666116611166611111611111111111111666111111111661166661666611111166111161161166111111611161616111661999999999999999991661611666166616611111116111611661661616616611666166616611161116666616111116666166111611117916611661111666166166661666666666666611661111611666166166661616116611666661616111116161661161666661166616616166161111111666617666661111161111111666111111111161166111161061166611666611116161661116161116666661116611666111666611611116616611166111111161116661661111611166666616611611666616661611166111661611611661111116611116616666116666666116166666161661666166661161666166161616611166116666611666111166161111166666111616166611661166661616166666666666666616616616116666666666661166611616111111111111661166666666666666666611161611116666666111111611111111661111111111166661666616661666666666661116611111111166116611161666116169166666116996161111111166111666611111116611111666111111111611616666616616111166111166111161611611166661611111111166116111661111
1141508549 6TEXAS   20001BARTON     7911611111116161111111166669111116161116111611116199911161116661666111111611116161111111611111666661111666116199111111161666111196111116616111111111161161111616191116116616111111111116666669191166166666666611111166116611161111161161116166111111111611161666616161166611116111666166666666161111111616106111661611111116111166161616111116666611666116666666661161111119996616111111111166611111111166666666666666111116666666116616116111661111111611616611111166669166616161111111116666666111116611116111111611161199999999999911116111161161111111611161611611111111161666661111611116111167911116166666611611661116116666166116116111116111119111611116161111111111116161666661111116611666661111161111111611111111111117111116666616666666111666666666611111666611011111161111166661611111661616661111611111166111666111166199911119611111116666611111111111116111111111161166199111161111111111611111116111111161111111111161111161111166666616666616116119911111611116616666161166611661166166611111111116666611111616161611111111611116166616111111611616166661111111111111111111111161161666666666666116611111111111611111166116119116961111166669166666666116666666666611116111161116111611611116661166666666611111166616111161699911111111111616661111611111111111196661111111111111111111111111111111111166111111111666616111111111116111111916611111111111161
1141512422 1INDIANA 10001VISCLOSK   7966161161661616116666611116966661616661666166111111166616661116111611666161661616611661166666161116666616161611111661616111666661166166666666169996616116616161616611611111199616666661111116616666616661116669666661611161616161166616161611611161666166616111161616611166661166611661111111616166666166601666116966666661666666616161661661611166666611116616616616666611161161666666116611166611111661111111111111666111111111661166661666611111166161161161166611111111161616111661661111111666161161661611666166616611111116111611661661616616611666166616611161116666616111116666966661619917916611661111166166166661666666666666611661111611666166166661616116611666661616111116166661161666661166616616166111111111666617666661111161111111666111111111161166111161061166611666611116161661116161116666161116619666111666611611116616611166119111161116661661111611166666616611611666616661611166161661611611661111116661116616666116666616116166666161661619966661161666166161616611666616666611666111166161111166666111616166611661166661611666666666666666616116616116666666666661166611616111161111111661166666666666666666661161611116666666161111616161111661111111111166661666616661666666666661111611111111166116611161666116161166666119999161111111166111666611111116611111666111111111611616666666616111116111166111161611611166661611111111166116111661616
1141541072 4OREGON  10001DEFAZIO    7966161161661616116666611116661111616661666169999911166616661116161111666161661616699661116666161116666611161611999661616111666661166161166966111116611616616161616611611611111616666661111116619661616611116666666661611161616616116616161611611161661116616111161616611166661166611661171111611166666166601666116199999999999999999999961661111161111611111116116116666661161161666666116611166611161611111111111111666111111111611166661166611111166111161161166611111611161616111661661111111666111169661619669166616611111116111611661661616616611666116616999991116696616111116666166111616117916616666666666666666666669999999999999999999999999999999999999996611666661616611116161161161661111166611616199991111111666617666661111161111111666111111111161166111161061166611666611116161661116161116661611116611666111616611611116616611166111111161116661661111619966666616611611666616611611166111661619911661111116661116616666111666611116166661161661616166666161661166161616611166616666611666111166161111166666111616166711661166611111116666666116161111111616116696669999999966611916111111116611661166666666666666666611161616116666666111111611161111661611111111166661666616666666666666661116611111191166116611161666116161166666116666161111111116111666111111116111111666111111111611616666616616111666111166111161611611199999991111111166116111661616
1141543144 5GEORGIA 10001LEWIS      7966161161661616116666611116666661616661666166111611166616661116111611666161661616611661116666161116666611161611111961616111666661666161161666111116616616616161616611611611111616999999999999999999999999999999999999911161616661116616161611611161666116616111161696699996661166611661161111616666666166606666116166666666666666616161661661111166616611111616116116666661161161666666116611166611111611111111111111666111111111661166661666611111166111161161166611111611161616111661661111111666111161661611666966616619999999999911661661616616611666166616611161116666616111116666166111616117916611661111166166166661666666666666661666111611666166166661616116616666661616111116161661161999999966616616966161111111666617666661119161111911666111111111161166111161069966111666611116161661116161116666161116691666991666611619996616611166111111161116661661111611166666616611611666616666611166161661611611661111116661119999999999666611116166611161661669966666161666166111616611666616666611666999966161111166666119616166611661166661611116666666616166611111666116666666666661196611616111111111111661166666666666666666661161611116666666111111611111111661111111111166661666616661666666666661111611111111166116611161666116169166666116666161111111166111666611111116611111666111111111611616666666616111116119999111169611619166661661111111166116111661611
1141543847 4NORTH C 10001PRICE      9906161161661616119661611116666661616661666166111611166116661116111611661161999999911661116661161116661611161611111661616111666611166111161666111116616619999161616611611111111616666161119116616666616661116666666691611161616161116616166611611161666116616111161616611166161166611661161111616666666166601666116166666661666666616161661161111166166611111116116116611661161166666666116611166611111611111111111111666611111111661166661666611111166111161161166111111661666616111661661111111666191161661619666166616611111116111611661661616616611666166616611161116666616111116666166111616117916611661111166166166661666666666666611666111611666166166661616116611666661616111116161661161666661166616616166161111111661117666661111161111111666111111111161166111161061166611666611116161661116161116661161916611666111666611611116616111166111111161116669999991611166666616611611666616661111166111661611611661111116691116616666616666666116166666161661666166661161666166161616611166616666611666111166161111166666111616166611661166661611166666666616666616116616116666669999999966611616111161111111661166666666666666666661161611111666666111111611111111661111111111166661666616661666666666661116611111111166119911161666116161166696119616161111111166111666611111116611111666111999996611996666616616111116111166111161611611166611611111111166116111661111
114154441325NEW YOR 10001SLAUGHTE   7966161761661616116669611116666661616661666169999999966616661116111611666161661616611661116666161116666611161611111661616111666661166161161666111116616616616161616611611611611616666961119116619661616611666669666661611161616161166616166611611161661116616111161616611166661166611661161161616166666166601666116166666661666666616161661661111111111111111616116116666661161161666666116611166611111611111111111111666111111111661161661666611911166111161161166611111611161616999661661111111666111161661611666166616611111116111611661661616616611666166616611161116666616111116666166111616117916611661111666166166661666666666666611666111611666166161661611999999999661616111116166661161666661166616616166169999111666617666661111161111111666111111111161166111161061166611666611116161661116161116666161116611666111666611611116616111166111111161116661661111611166666616611699666616666611166161661611699961111116661996616666616666616116166666161661661166661166666166611616611166116666611666111166161111166666111616166611661166661661166666666666166611111619996666666666661166611616111111111111661166666666666666666661161611116666666111111611111111661111111111166661666616661666666666661116611111111166116611161666116161166666116616161111111166111666611111116611111666111111111611116666616616111116111166111161611611166611611111111166116111661111
114154454921TEXAS   20001SMITH      7911611111116161111111166661111116161116111611116111111161116661666111111611116161111111611111666661111666116161111111161666111111111116616611111111161161111616111166116116111191111119666661161116166666661111111116116611161111161161116166111111111611161666616161166611166111166166666666161116111611106111661611111116111111161616111116166611166116666666661161116111116616111111111166611116111166666666666666111116666666116616196111166911111611616611111166666166616161111111116666666111116611116111111611161116666661666111196111161161199999991161111611111111161666661111611666161167911116116666611611661116111111111111116111666111111111611116161111111111116161666661111116616666661111161111119611111111111167111116666616666666111666666669611111666611011111161111166661611111661616661111611111966111666111166199911111111111116666611111111111116111111111161166111111161199111111611111119911111161111111111161911161111166666616666611116111111111611116616666161166611661166166611111111116666611111666161611111111611116166116111111661616161666111111111111111111111111161666666666666116611111111111111111166116111111691111166666166666666116666666666611116111161116111111611116661166666666611111166616111661611111111111111616661111611111111111116661111111111111111116111111111111111166111111119666616111111111116111111116111111119111161
1141544623 6MICHIGA 20001UPTON      7911611111116161111111166661161116161116111611116111111161116661666111111611116161111111611111166161111161161661111111161666111111111116666611111111161161111616111116166116111111111616666161661166166666666611111166116611161111166161116166111111111611161666616161166611116111666111661111111111111611106666161611666166661161661116111116666661166616666666661661111111116616111111111166611111111166666666666666111116666666616616116111661111111611616611111166666166616161111111116666166111116611116111111611161116166661666111116111111161111111611161611611111111161666661111611116111117911116666666666611611666166666666166616111116111111111611116161111111111116161666661111116611666661111111111111611111111111117111116666616666666111666666666611111166611011111161111166661611111661616161111611111166111666111166111111111111111116666611111111111116111111111161166111111161111111111611111116111111161111161111161111161116166666616666161111111111111611116666666161666611611166166111111111116666611111616161611111111611116166616166661661611166666111111111111111111111111166666616666616116611111111111611111166116111111661111116666166616666666616666666111116111166116161611111166661166166666611111166666111161611111111111111616661111611111111111116661111111111111111116111111111111116116111111111666616111111111116111111116111111111111161
114154487112CALIFOR 10001PELOSI     7966161161661616116661611116666661616661666169991611166116661116911611661161991616111661116661161116661611161611111661616111666611166196161666111116616616696161616611611111199616666161111116696661616611116669999661611161616161166616166611611161666116616111161616611166161166611611161111669999999966601666116166666661666666616161661161111116666611611616116116616661161161666666116699166691111611111111111111666111111111661166661666611191166111199161166111111611161616111661661111111696111161661611999166616611199116111611661661616616611666166616611169996966616111116666166111616117996611661111669166966661666666666666611666111111666166166661616916611666661616111116166661161666661196616616966161111111666617666661111161111111666111111111161166111161061166611666611116161661116161116666161116611666111666611611196616111166111111961116669999991611166666699999999666616666619166161661611611661191116611119616666116666666116166996161661666166661161699999991616611666116666611666111166161111166666111616166616661166661611166666666616666616116619116666666666661166611616111161111111661166666666666666966661161611111999999999999911111111661111111111166661666616661666666666661116611111111166116611161666116169199999996699161111111166111666611111116611111999999999999999619999616616111116191166991161611611166661611111111166116111661616
1141545412 6NEW JER 10001PALLONE    7966161161661616116666611116666661616661666166111611166616661116111611666161661616611661116666161116666611161611111661616111666661166161161666111116616616616161616611611699999616666661111116616661616611116666666661611161616661116616166611699961661116616111161616611166661166616611161111616166666166601666166166666661666666616161661661111111111111111116116116666661161161666666116611166611111611111111111111666111111111661166661666611111166111161161166611111661166616111661661111111666111161661611666166616611111116111611661661616616611666166616611161116666616111116666166111616117916611661111666666166661666666666666611666111111666166166661616116616666661616111116166661161666661166616616166161111111666617666661111161111111666111111111161166111161061166611666611116161661116999999999999116611666111666611611116616611166111111161116661661111611166666616611611666616666611166161661611611661111116661116616666116666611116161111161661666166661161666166111616611166116666611666111196161111166666111616166611661166661616166666666616166611111616116699996666661166611616111111111111661166666666666666666611161611116666666111111611111111661111111111166661666616661666666666661116611111111166116611161666116161166666116666161111111166111666611111116611111666111111111611116666616616111116111166111161611611166661661111111166116111661616
1141545554 2TENNESS 20001DUNCAN     7911611116116199111111166661111116161116111611111111111161116611666111111111116161111111611111616661111166116161111111161666111116611116666111111111161161111616111111116116111111111161111661161116161166111111111116116611161611161611116166611111111611161666616161966611116111616111611161111111111661106611661699999999991111161616111161116661111166116611161166116611111661111611111166611116111166666666666666111116666666116616116111161111111611616611111166666166666161161111116666666111116611116111111611161116666661666111116111161116111111111161611611161111161666661111611666161167911116166666111111666116161111111111166161119111111111111116161111116111111161616661111116611666661111111111111611111111111167111116666616666666111166666161661111616611011111161111161661611111661616661111611111166611666111166111111111911111116666611111111111111116111111161166111111161111111111611111116111111161111111111161111111111111666611111116116111111116116111611666161166611161161696611111111116666611111616161611161111111116611611111116111161111111611161111111111111111161161666616666666116611111111111111111166116119666961111166666166666666116666666666611166111161116111111111116666666666666616111161611111661661111111161111616661111616111111111116661661111111111111161111111111111111666161111111666616111111611116161111116111111111111611
114156031316NEW YOR 10001ENGEL      9900000161661616111661611116666661616661666169999911166116661116999911661161661616111661116661111116661611961611111661616111666611166111161666111116616616616161616611611111199996666161111116616661616611116666666661691161616161166616166611611161666116616111161616611166161166616611161111616666666166601666116166666661666661616161661161111166166116611616116116616661161166666669996611666611111691111111111111666111111111661166661666999999999999999999966111111661166616161661661111119699911161666611666166616611161116111611661661616616699666166616611161116666616111116666166111616117916611661666666166116961666666666666611166111111661166166661616116611666661616111116161661161666661166616699966161111111661117666661111161111111666991111111161166111161069966611666616116161661116161116666161116611666611666611611119616111166111111961116669999991611199999999999911666616666111166161661619911661111116611116616666616666616116166661161661669996661161666166111616611166116666111666111196161111166666119999999911661166661691166666666616166166616619116666666666661166611616111161111111661166666666666666666661161611111666666111111611111111661111111111166661666616661666666666661111611111161166116611161666116161166666116616161111111166111666611111116111111666111111111611996666616616111116111166111161699611166661611111111166116111661111
114156121317NEW YOR 10001LOWEY      9900000161661616111666611116666661616661666166111611166696961116111611661161661616111661116666161116661611161611111661616111666661166116661666111116616616616161616611611111111616666661111116616661616611116666666661611161616161166616161611611161666116616111161616611166161166611661161111616166666166601666116166666661666661616161661161111166666611111616116116616661161166666666116611166611111611111111111111666111111111611166661666611111166111161161966611111611166616111661961111111666111161666611666166616611111116111611661661616616611666166616611161116666616161116666166111616117916616661166666666666661666666666666611666111999666166166661616116611666661666111116161661161666661196616616166161111111661617666661111161111111666111111111161166111161061166611666611116161661116161116666161116611666111666611611116616611166111111169116661661111611166666616611611666616661111166161661611611661111116611116616666616666666116166666161661666166661161666166161616611666616666611666111166161111166666111616166611661166661611166666666616666616666616116666666666661166611616111161111111661166666666666666666661161611111666666111111611111111661111111111166661666616661666666666661116611111111166116611161666116169166666116616161111111166111666611111116111111666111111111611116666616616119116111166111161611611166661611111111166116111661111
1141561373 7WASHING 10001MCDERMOT   7966161161661616111666611116666661916661666166111611166616661116119611666161661616611661116666161116666999161611111661616111666661166161161666111116616616616161616611611611111616666661111116616661616611116666669661611161616166116616766611611161666116616111161116611166661166611611161111616166666166601666116166666661666666616161661661111166111611111616116116666661161161666666116611166611111611111111111111666611111111661166661666611111166161161161166619991611161616111661661111111666161161661611666166616611111116111611991661616616611666166616611161116666616111116666166111616617916611661166669966166661666666666666661661111611666166161661616116616666661616111116161661161666666166616616166161111111666667666661111191111111666111111111991166111161061166999996611116161661116161116666161116611666111666611611116996611166111111161116661661111611166666616611611666616661611166161661611611661111116661116616666616666611116166666161661666166666161661166111619611166116666611666111166161111166666111616166611991166661611116666666616166111111666116699996666666966611616111111111111661166666666666699666611161616116666666111111616161111661611111111166661666616661666666666661116611111111166116611161666116161166666119996161111111166111666661111116611111666111111116611616666666616119966999966111161611996666661699991111966119999661696
11415616 3 1MASSACH 10001NEAL       7966161161661616111666611116666661616661666169999999966616661116111611666161661616611661116666161116666611161611111661616111666661166166161666111116616616616161699999911111111616666661111116619661616661166666666661611161616661166616166611611161666116616111161116611166661166611661161111616166666166601666116166666666666661616111661661111116111611111616116116666661161161666661116611166611111611111111111111666611111111661166661666611111166161161161166611111611166616111661661111111666111161661611666166616611111116111611661661619999911666116616611169116666616111116666166111611117916611661111666166166661666666666666611661611611661166166661616116611666661616111116166661161966661166616616166161111111661117666661111161111111666111111111161166111161091166611666611116161661116161116666111196611666111666611611116616611166111111161116661661191611166666616611611666616666611166111661611611661111116661116616666116666616116166666161661666166661161666166111616611166116666611666111166161111166666119999999911661166611616166666666666166611116616116666666666661166611616111111111111661166666666666666666611161611916666666111111611111111661111111111166661666616661666666666661116611111111166196611161666116161166666196666161111111116111666611111116611111661111111111611116666616616111116111166111161611611196661611191111166119111661611
114156217148CALIFOR 20001ROHRABAC   7911611111116161111111166961111116161116111619999999911161116661666111111611116161111111611111616661116161916166999111161666111116611116616161111111161161111616191116116116111111111111116161161116161116111111111116116611161611111161166166199911111611161666616161166611116111166111611111111111111611106611661611116116111161161116611666166611111161116616166161166611116616111619611166611116111166666666666666111116666666116666116111161911111611616619911666666166116161111111116666666111116619116199111611161116166661666199116111111166111111611161111611161111161666661111611666161167991111116666616611611166111111111111166111616999111111611116161991111111116161666661611116616966661111161111111619111111111169111116666616666666111696666666611111666611019911161111166661611111661616661111611991166111666111166199911111199911116666611111119111116111111111161166199111161111991111611111116199111161111161991161111661111166661616616111116119911111611116661616161166611161161166111999911116666611111666161611199111611166611111111111111111611661119991111119999999911111161666616666666116611111111111111111166116111666661111166666166666666111666666666611116111161116111611111116666166666666111111166116111661619911111111111616691111611111111111116661111116111111111116111991111111111166161991111666616111111111116119991116611111111111161
114156344327FLORIDA 20001ROS-LEHT   7911611111116161116116166661661116661116111611116111111661116661666111116611116161611111611116166161166161161661111111191666111161111166666611111111161161111616111116166116111111111616666666661166666666666611161116116611161111166161116166111111111611161166616161166611666111666661661111111116661616106666666616666666661161661166111616666616166616666666666661166111116616111111111166611116111166166661666161611111161616666616116111661111111611616611111666666166616161111111116666666111116611116111111611161111166116666111116111111161111111611161611611111111161666161111611116111117911111661666161611611666666666666166116161116111999999611116161111111161116161111661111611611666661111161111111611111111111617111116666616666666111999999999991111111661019111161111166661611111166616661111611111116611666111166111111111611111111611661111161111116111111111161166111111161111111111611111116111111161111161111161111161166666666616666161661111111111611111666166161666666116616166111111111116166661111116616611111111611116666116666661666616166666111111111111111111111111161616666666666116611616116111611111666116111111661111116666116661111666611116166661116161616661666666661166111161611666111111166666111161611111111111161616661111611111111111111161111111111111111116111111111111116116111111111666616111111111116111111116111111111111161
114201037117CALIFOR 10001HONDA      7996161161661616116666611116666661616661666166111611166616661116111611666161669999911661116666161116666611161611111661616111666661666161161666111116616616616161616611611611111616666661111116616661616611116666666661611161616661166616166611611161666116616111161616611166661166611661161111616166666166601666116166666661666666616161661661111111111111111116116116666661161161666666116611166611111611111111111111666611111111661166661666611191166111161161166611111611161616111661661111111666111161661611666166616611111116111611661661616616611666166616611161116666616111116666166111616117916611661111166166166661666666666666661666111611666166166661616116616666661616111116161661161666666166616616166161111111666617666661111161111111666111111111169166111161061166611666611116161661116161116666161116611666111666611611116616619166111111161116661661111611166666616611611666616666611166161661611611661111116611116916666116666611116161111161661666166666161666166111616911166116666611666999966161111166666111916166611661166661611116666666616166111111616116666666666661166611616111161111111661166666666666666666611161616116666666111111611161111661111111111166661666616661666666666661116611111111166116611161666116161166666116616161111111166111666611111116611111666111111111611616666616616111116111166111161611611666661669991111199996111661616
114201047128CALIFOR 10001SCHIFF     7966161161661616111661611116666661616661666166111611166116661116111611661161661616111661116661161116666611161611111661616111666611166116161666111116616616616161616611611111111616666661111116616661616611116666666661611161616161166616166611611161661116616111161611611166161166611661161611616666666166601666116166666661666666616161661661111116666611111166116616666661161161666666116611166611111611111111111111666111111111661166661666611111166111161161196111111611161616111661661111111666111161661611666166616611111116111611661661616616611666116616611161116666616111116666166111611117916611661111666166166661666666666666611666111611666166161661616116611666661616111116161661161966661166616616166161111111666617666661111161111111666111111111161166111161069966611666611116161661116161116666161116611666111666611611116616199966111111161116661661111611166666616611611666616661111166111661611611611111116611116616966616666616616166666161661661166661161666166111616611666116666611666111166161111166666111616166611661166611611161666666666666616116616116666666666661166611616111161111111661166666666666666666661161611111966666111111616111111661111111111166661666616661666666666661116611111111166116611161666116169999999996616161111111166111666611111116611111666111111111611996666666616111116111166111161611611166661611111111166116111661111
114201077149CALIFOR 20001ISSA       7911611111116161111116166661111116161116111611116111111161116661666111111611116161611111611111666661111161116161111111161666111111111116666161161111161161111616111116116616611111111117776661161116161666666611111116116611161111161161166166111111161611161666616161166611116111166116616666111111111611106111661611111116111111161116111116166611166111666666161161161111116666111111111166611111111166666666666666111116666666116616116111166111111611616611111666666166616161111111116666666111116611116111111611161116166661666111116111111161111111611161691611111111161666661111611666111167911116116616611111611166116111666111116111616111111111611116161111111111116161666661111116616666661111111111111619111111111119999996666616666666111999999999991111666611019999161111161661611111661616661111611111166111666111166191111111111111116666611111111111116111111111161116111111161111999999999999999911111161111111111961111661111166666616666611116116111111611116616666161166611111166166111111111116666611111666666611111111611116666116111111611616116666111111111111111111111111161666666666666196611111111111111111166116111116661111166666166666666116666666666611116111161999991111111116661166666666611111166666111161611111111111111616661111611111111111116661111111111111111116111111111161111116111111111666616111111111116111111119111111111116161
114201087153CALIFOR 10001DAVIS      7966161161661616111661611116666661616661666166111611166116661116111611661161661616111661116661161116661611161611111661616111666611166116661666111116616616616161616611611111111616666161111116616661616611116666666661611161616161166616166611111161661116616111161616611166161166611611161111616166666166601666116166666661666666616161661161111116666616616616116116611161161166666116116611166611111611111111111111666111111111661166661666611111166111161161166111111661166616111661161111111666111161661611666166616611111116111611661661616616611666166616611161116666616111116666166111611117916611661111666166166661666666666666611666111611666166166661616116611666661616111116161661161666661166616616166161111111666117666661111161111111666111111111161166111161061166611666611116161661116161116661161116611666111666611611116616111166111111161116661661111611166666616611611666616666111166111661611611661111116611116616666616666666666116666161661619966661161666166161616611166116666611666111166161111166666111616166611661166661111166666666616666666666616116666669999999966611616111161111111661166666666666666666611161611111666666111111611161111661111111111166661666616661666666666661111611111111166116611161666116169166666116616161111111116111666611111116611111666111111111611116666666616111116111166111161611611166611611111111166116111661111
1142011043 1FLORIDA 20001MILLER     7911611111116161116111166661111116161116111611116111111161116661666111111611996161111111611116666661116161116166111111161666111166111166616611111111161161111616111166116116111111111616966661161116161116661111111116116611161111161161116166111111111611161666616161166611616111166116666661161111111611106111661611111116111111161616111616166666661111666666666661166111116616111111111166611116199999999999999999999116666666116669996111166111111611616611111666666166616161111111116666666111116611116199111611161116166661666199116111161161111111611161111611111111161666661111611666161167911116116666111611661116111111111111116111116111111111611116161111111111116161666661611116616666661111161111111611111111111667111116666616666666111666666666611111666611011111161111166661611111691616661111611111166111666111166111111111611111116666611111111111116111111111161166111111161111111111611111116111111161111161111161111661111166666616666616116111111111611911611666161166611161111166611111191116666611111666161611111111611116166166111111661616161666111111111111111111111111161666666666666116611111111111111911166116111999691111166666166666666116666666666611116111111111111111611116661166666666611111166616111161991111111111111616661111611111111111116661111111111111111116111111111111111166611111199666616111111111116111111116111111111111161
1142011143 4FLORIDA 20001CRENSHAW   9911611111116161111111166661111116161116111611116111111161116661666111111611116161611111619111666661111161966661111111161666111111111116666611111111161161111616111166166116111111111116666661961166161666666611161116116611161111161161116166111111161611161666616161166611166111666666666666161116111616106666661616166116661161161616111116666666666616666666666661111111116616111111111166611111111166666666666666611116666666116616116111661111111611616611111166666166616161111111116666666111116611116111111611161116166661666111116111111161111111611161611611111111161666661111111116111117911116666666611611611166166666666666116111116111111111611116161111111111116119666661111116611666661111161111111611111111111117111116666616666666111666666666611111666611011111161111166661611111661616661111611111166111666111166111111111111111116666611111111111116111111111161166111111161191111111611111116111111161111111111161111661116166666616666616116111199999611111616666161666611661666166111111111116666611111616661611111111611166666666111111661616666666111111111111111111111111166666666666666116611616111111611111166116111111661111166666166666666166666666666661116111111111161691611116661166666666111991166666111161619911111111111696661111611111111111116669111111111111111116111991111111111166111111111666616111991111116111111116199991111111161
11420119 3 8MASSACH 10001LYNCH      7966161161661616999666611116661111616661666166111611166616661116111611666161661616611661916666161116666691161611111661116111666661166161161666111116616616616161616611611611111616666661111116616661616611116666666661699999616161166611166611611161661116616111161116611116161166616661161166666166666166601666116166666661666111616161661661111116661616111666616116666661161161666616116611166616111611111111111111666116111111661166661666611111166111161161199911111611169916111661661111111966111161661611666166616611111116111611661661616616611666166616611161116666616111116666166111611117916611661111166166166661666666666666611661611611661166166661611116611666661616111116161661161669661166616616166161111111661117666661111161111111666111111111161166111161066166611666611116161661116161116661111116611666111666611611116616611166111111161116661661111611166666616611611666616666111166961666611611611111116661116616666111666666666166666161661666166661161666166111616611166616666611666111166161111169666161616166611661166611611116666666666666116661116116696666666666666611616111161111111661166666666666666666661161611111666666111111611111111661111111111166161666616661666666666661111611111111166116611161666199991166666116669161111111166111696611111116111111661111111111611116666116616111116111166111161611611166661611611111166116111661111
1142012233 4MINNESO 10001MCCOLLUM   7966161161661616111661611116666661616661666166111611166116661116111611661161661616111661166661161116661611161611111661616111666611166111161666111116616116616161616611611611111616666161111116616661616611116666666661611161616161166616166611611161661116616111161616611166161166611611161111666166666166601666116166666661666616616111661161111116661611111616116116616661161161666666116611166611111661111111111111666611111111611166661666611111166161161161166111111611116616111661661111111666171169661611666166616699999999999911661661616616611666166616611161116666616111116666166111611117916616661116666166166661666666666666661661111111666116966661616119611666691616111116166661161666661166616616166161111111666117666661111161111111666111111111161166111161061166611666611116161661116161116666161116611666111666611611116616111166111111161116661661111611166666616611611666616661611166111661611611661111116611116616666116666616116166666167661666166661161666166161616611166616666611666111166161111166666111616166611661166661611166666666616666611116616116666666666661166611616111111111111661166666666666666666611161611116666666111111616161111661111111111166661666616661666666666661111611111111166116611161666116169166666116616161111111166111666611111116611111666111111111611616666666616111116111166111161611611166661611111111166116111661616
1142012434 6MISSOUR 20001GRAVES     7911611111116161116116166661111116161116111611116111111661116661666111116611116161611111611116666169916161116161999999999999999999999996616611111111161161111616199999999999911111111616666666661116166666661611111116116611961111161161116166111111111611161666616161166611616111166166666666111111111616106666661911166116661116161616111616666616666116666666661661161111116616111111111166611111111166666666666666111116666166616666196111999111111611696619999999999966616161111111116666616111116611116111111611161116166661666111116111161161111111611161611611111111166666661111111116111167911116666666666611666666666666666166116111116111111111611116161111111111116161666661111116611666661111161111111611111111111917111116666616666666111666666666611111666611011111161111166661611111661616661111611111166111666111166111111111699999999999999999991111116111111111161166111111161111111111611999999911111161111161111161111161116166666616666616166111111111611116616666161166611661116166611111111116666611111616161611111111611116166616111111661666666666116111111111111111111111161666666666666116611111111111111111166116111111661111166666166666666116666666666611116111166116111111111116661166666666611111166616111161611111111111161616661111611111111111116661111111111111111116111111111111111166111111111666616119111111116111111116199999999999161
1142012913 3NEW YOR 10001ISRAEL     9966161161661616116666611116666661616661666166111199966616661116111611666161661616611661116666161116669611161611111661616111666661166166161666111116616616616161616611661111111616666661111116616661616611166666666661611161616161166616166611611161666116616111161616611166661166611661161111616166666166601666116166666661666666616161661611111166666611116616116616661661161166666666116611166611911611111111111111666111111111691166661666611111166111161161196611111699999999111661661111111666111961666611666166616611111116111611661661616616611666166616611161116666616111116666166111616117996611661111666666666661666666666666611661111111666166161661611116611666661616111116161661161666661166616616166161111111666117666661111161111111666111111111161166111161061166611666611116161661116161116666161116611666111666611611116616699966111111161116661661111611166666616611611666996661111166161661611611661111116669116616666616666666666166666161661661166661161666166111616611666116666611666111166161111166666111616166611661166661611166666666666166616616616116666666666661166611616111161111111661166666666666666666661161611111696666111119911111111661111111111166661666616661666666666661116611111111166116611161666116161199999996666161111111116111666611111116111111666111111111611996666616616111116191166111161611611166661611119991166119911661111
114201302412OHIO    20001TIBERI     7911611111116161111116166661111116161116111611116199911661116661666111116611116161611111611116666661116161161661111111161666111161111116666111111111161161111616111116166116199111111116666666661166166666661611161116116611161111161161116166199911111611111666616161166611616111666116666666161111111611106666691916166116661161161116111616666616696616666666661661111111116616111111111166611111111166666666666666111116666666116616116111661111111611616611111166666166616161999111116666666111116619116111111611161116196691666111116111111161111111611161611611111111161666661111111616111117911116666666611611611666166666666166116111116611111111611116161111111111116161666661111116611666661111111111111611111111111617111116666616666666111666666666611111666611019911161111166661611111661616661111611111166111666111166191111111691111116666611111111111116119111111161166199111161111111111611111116111911161111111111161111661116166666616666611116111111111611116616666161666611161661166111911111119666611111666666611111111611116666111111111661611166666111111111111111111111111966666666666666116611161111111111111166116111111991111166666166666696116666666666661116111166116111911111116661166666666611111166666111161611111111111111616661111611111999999999999999999999999999996111111111111116166111111111666616111111111116111111116199999999111161
1142013414 9PENNSYL 20001SHUSTER    7911611111116161111111166661111116161116111611116111111161116661666111111611116161611111611111666661116161116661111111161666111161111166666611111111161161111616111166166116111111911616666666661166666666661611161116116611161111161161116166111111111611161666616161166611666111166116666666161116111616106666661611166666661161161616111616666616666616666666666661111111116616111111111166611111111166666666666666111116666666616616116111661111111611616611111166666166616161111111116666666111116611116111111611161196166661666911116111161161111111611161611911191111161666661111611666111117911116666666666611666666666666666666116111116111111111611116161111111111116161666661111116611666661111161111111611111111111167111116616616666666111696666666611111616611011111161111166661611111661616661111611111166111666111166111111111191111116666611111111111116111111111161166111111161111991111611111116111111161111111911161111661116166666616666616616111111111611116666666161666611161666166611111111116666611111666166611111111611116166666111111661616166666111119111111111111111111166666666666666116611111111111111111166116111111661111166666166666666116666666666611116111166116111111111116661166666666611111166616111161611111111111111616661111611111111111116661111111111111111119111111111111116116111111111666616111911111116111111116111111111111161
11420136 5 2RHODE I 10001LANGEVIN   7966161161661616116666611116661661616661666166111699999916661116111611666161661616611661116966161116666611161611111661616111666661166166661666911116616616616161616611611111111616966666661116616661616611116669999661611161611161166616166611111161661116616111161616611166161166611661161111616666666166601666116166666661666666616161661661111116166611111616116611666661161116666666116611166611111611111111111111666111111111661166661666611111166111161161166611111611166616111661661111111666111161661611666166616111111116111611661661616611611666166616611161116666616111116666166111616117916611661116666166166661666666666666611666111611661166166661611116611666661616111116161661161666661166616616166161111111661117666661111161111111666111111111161166111161061166611666611116161661166161116666161116611666111666611611116616691166111111161116661661111611166666616611611666616661111166161661611691961111116661116616666616666666616116666161661666166661161666166111616611666616666611666111166161111166666111616166611661166661161166666666666666116666119996666666666661166611616111166111111661166666666666666666661161611111666666111111611111111661111111111166661616616661666666666661116611111111166116611161666116161166666116616161111111116111666611111116611111661111111111611116666616616111116111166111161611611166611611111111166116111661111
1142013848 2SOUTH C 20001WILSON     7911611111116161111111166661111116161116111611116111111161116661666111111611116161111111611111666661111161116166999111161666111119911116616611111111161161111616111166116116111111111116666661161116161166661111111116116611161111161161116166119111111611161666616161199991116111166166666666161111111616106111661611111116111111161616111116666616666616666661666661111119916616111111111166611111111166666666666666111116666666616616116111161111111611616611111166666166616161111111116666666111116611116111111611161116166661666111116111161161199111619161999991111111161666661111111116111117911116111666111611611116116666666161116111616111111111611116161111111111116161666661111116616666661111161111111611111111111117111116666616666666111696666666611111666611011111161111166661611111661616661111611111166111666111166111111111111111116666611111111111116111111111161166111111161111111111611111116111111161111111111161111661111166666616666616116111111111611111616666161166611661161166111111111116666611111616161611111111611116166116111111661616666666111111111111111111111111161666666666666116611111111111111111166116111111661111166666166666666116666666666611116111161116111111111116661166666666611191166666111161611111111111111616661111611111111111116661111111111111111116111111111111111166111111111666616111111111116111111116111111111111161
1142013949 7TEXAS   20001CULBERSO   7911611111116161111111166661111116161116111611116111611161116661666111111611116161111111611111666661111161116166111111161666111116111116666611111111161161111616111169166116111111111116666661161116661166661119999996116611161111161161116166199911161611161666616161166611166111666666666666161116111611106666661611161111661166161616111116666616666616666666666661116111116616111111111166611116199999999999999999999999999999999996116111166111111611616611111666666166616161111111116666666111116611116111111611161116666661666111116199999999911111611161111611111111161666661111611666161117911116116666611611611111116611611111116111616111111111611116161111111111116161666661611116616666661111161111111611111111111117111116666616666666111966666666611191666611011111161111166661611111661616661111611111166111666111166199911111111111116666611111111111116116111111161166111111161111111111611111116111111161111191111161111161111166666616666696116111111111611116666616161166611661611166111111111116666611111616161611111111611166661161111111661616166166119991111111111111191161166666666666666116611111111111111111166116111111661111166666166666666116666666666611116111161116111111611116666166666666611111166616111161611111111111111616661111611111111111116661111111111111111116111111111111111116111611111666616111111111116111111116111111111111161
1142014340 4VIRGINI 20001FORBES     7911611111116161116116166661111116161999999991116111111161116661666111111611116161611111611116666661116666116161111111161666111161111116666611111111161161111616111166116116111111111616666661161116161166661111161116116611161111161161116166111111111611161666616161166611166119166116666666161111111611106166661611161116661111161616111116166616166616666666666661166111116616111111111166611116111166666666666666111116666666116619996111166111111611616611111166666166616161111111116666666111116619116111111611161116166661666111116111161161111191611161611611111111161666661111911666161167911116116666616611611166161111111111116111116111111111611116161111111111116161666661111116611666661111161111111611111111111167111116666616666666111666666666611111666611011111161111166661611111661616661111611111166111666111166111111111611111116666611111111111116111111111161166111111161111111111611111116111111161119999991161111661111166666616666616116111111111611116616666161166611161661166611111111116666611111666166611199999999999999999999999999999999999999991111111111111111111961666666666666116611111111111111111166116111111991111166666166666666116666666666611116111661116111111111116661166666666611111166666111161619911111111111616661111611999111111116661111111111111111116111991111111111166111991199999999999119999999919999999999111999999999
1142014573 2WASHING 10001LARSEN     7966161111661616119661611116666661611661666166111111166116661116111611661161661616111661116661161116661611161611111661616111666691166116661666111116616616616111616611611111111616666161111116616666666661116666666661611161616161166616166611111161661119616111161611611166161166611611161111616166666166601666116666666666666666666161661111111116666611611616116116111111961161666166116611166611111666611111111111666111111111661169661666611111166111161161166111111661166616111661661111111666111161661611666166616611111116119611661661616616611666116616611161116666616111116666166111616117916616661111666166666661666666666666611661111611666166161661616116611661661611111116161666161666691166616616166111111111666119666661111161111111666111111111161166111161061166611666611116161661166161116666161116611666111666611611116616911166111111161116661661111611166666616611611666616666111166111661611611661111116611116616666616666616616166666161661616166661161661166161616611166116666611666111166161111166666111616166611661166661611166666666616166616116616116666666666661166611616111111111111661166666666666666666611161611116696666111111611161111661111111111166661666616661666666666661116611111111166116611161666116111166666116616161111111166111666611111116611111661111111111611116666666616111116111166111161611611166611611111119966116111661111
1142014734 1MISSOUR 10001CLAY       7966161161661616111661611116666661616661666166119911166116661116111611661161661616111661116661961116661611161611111661616111666611166111161666111116611616616161616611611111199616966161111116616661616611116669999991611161616161116616166611191161666116616111161699911166161166611611161111616666666166601666116166666661666666616111661161111111161611111616116116616661161116666666116611166611111611191111111111666611111111661166661666611111166161161161166111111161111616111661661111111666111161661611966166616611111116191611661661616611611666166616611111116666616111116666166111616117996611661111666166116661666666666666611666111611666166166661616116611666661616111116161661161666961166616616166161111111666917666661111161111111666111111111161166111161069966611666611116169661116161116661611116611666111666611611116616111166111111161116661661111611166666616611611666616666611166161661611611661111116611116616666616666611116116666161661661166661161666166161616611166116616611666911166161111166666911616166611661166661661161666666666666611111196116699669999999966611616111111111111661166666666666666999999961611111666666111111611111111661111111111166661666616661666666666661111611111111166116611161666116161166666116616161111111166111666611111116611111666111111111611616666666616111116111166199161611611166661611111111166116111661111
1142030141 3ALABAMA 20001ROGERS     7911611111116161999111166661111916161116111611116111111661116661666111116611116161611111611116666661116161116166111111661666111169911166616611111111161161111616111166166116111111111616666666161166161666661119961116116611161111161161116166111111161611161666616161166611666111166661661111111116111611106111661611116116661161161616111116666616666616666666666661161111116616111111111166611111111166666666666666111111666666116616196111661111111611616611111666666166616161111111116666666111116611116111111611161116166661666111116111161161111111611161611611111111161666661111111116111117911116111666661611661166166666666666116911116111111111611116161111191111116161666661611116611666661111161111111611111111111667111116666616666666111666666666661111666911011111161111166661611111661616661111611111166111666999999999911111611119116666611111111111116111111111161166111111161111111111611111116111911161111161911161111661116166666616666116116166111111611911616666161666611661666166611111111116666611111666661611111111611116166666111119661666166666111119111111111111111111166666666666666116611111111111111111116116199111661111166666166666666166666666666611116111161116111111611116661166666666611111166666111161611111111111111616661111611111111111119961111111111111111116111111111111111116611111111666619911111111116111111116111111111111166
1142030461 8ARIZONA 20001FRANKS     7911611116116161111111166661111116161116111611116111611161116661666111111611116191161111611111616661119666116166111111161666111116111116616611911111161161111616111166116116116111111116666661161116661116661111111116116611161111161161116166111111116611161666616161166611116111166116666166161111111661106111661611111111111111161616611116666616166116666166666161616111116616111111111166611116111166666666666666111116666666116616116111161116111661616611111199999966666161111111116666666111119611116111111611161116166661666111116111161161111111611161611611191111161666661111691666161167911111916666111611611116111111111111116111666111111111611116161111111111116161666661611116616699661111961111111611111111111967111116666616666666111666666666611111666611019991161111161661611111661616661111911111166111666111166111199111111111116666611111111111116111111111161166111111161111111111611111116111119961111111111161111661111166666616666616116111111111611116611666161166611161111169611111111199999611111969161611111111611166166619111111661666166666119119111111111111111111161666666666666116611111111111111119166616611111691111166666166666666116666666666611119111161116111111111116666166666666661111166619111161611111111111111616661111611611111111116661111111111111111116111111111111111666661111111666616111111111116111111116111111111111666
1142030561 3ARIZONA 10001GRIJALVA   7996161161661616119669611116666661616661666166111611166916991116111611666161661616999661166669161116666696161611999661616111666691699991161666119996616616616161696611611611611616666961111116616661616611116666666661611169616669116616166611611161666116616111161616611166996166611661161111616166666166601666116166666666666666616111661961111166611611111111116116696661961161666669996611666696111611111111111111666611111111661161661666616991166161161161166911111611161616111661661111111666111169661611666166616691111116111611661661616616699666166616999991116666616111116666166111616117996611661111666166166661666666666666661666611611666166166661616116616666666616111116166661161666996166616699966169111111666969666661111161119111666111111111161166111161069996611666611116161661116161116669999996611666111666611619916916911166111111161116669999999999966966616611699666616666611166161661611699991111116691996616666616666611116161661961661669966666161666966111616611166616666611666911199961191166666111696166699961166961611166666666616166611111696116696669999999996611616191111111111661166666666666666666661161611116996666111111611161111661111111111166661666666661666666666661116611111116166996611161666116161166666116696161111111166111999999991116611111666111111111611616666666616111119991166111161699616666661661111111166116111661616
114203077122CALIFOR 20001NUNES      7911611111116161111111166661161116161116111611116111111161116661666111111611116161111111611111666661111161161161111111161666111111111116666611111111161161111616111166166116111111111116666661161166161666666111161116116611161111161161116166111111161611161666616161166611166161166666666666161116611611106666661616111116661111161616111116666666666616666666661661111111116616111111111166611111111166666666666666611116666666116616116111661111111611616611111166666166616161111111116666666111116611116111111611161116166661666111116111119161111111611161691611111111161666661111611666111117911116616666661611661166166666666161116111116111111111611116161111111111116161666661111116611666661111161111111611111111111117111116666616666666111666666666611111666611019111161111166661611111661616661111611111166111666111166111111111111111116666611111111111116111111111161166111111161111111111611111116111111161111111111161111161116166666616666611116111111111611116616666161666611661666166111111111116666611111616661611111111611166666666111111661616166666111111111111111111111111166666666666666116611111111111611111166116111111661111166666166666666166666666666661116111161116111661111116661166666666611111166666111161611111111111111616661111611111111111116661111111111111111116111111111161111116111111111966616111111111116111111116111111111111161
114203107138CALIFOR 10001SANCHEZ    7966161161661616999666611116666661616661666166111611166616661116111611666161661616611999996669161116666611161611111661616111666661166161161666111116616616616161616611611611111616666661111116616661616611116666666661611169616161166619166611611161661166616111161616611166961166611611161111666666666166601666116666666661666666616111661661111116166611111116116116666661161161666666116611166611111611111111111111666111111111661166661666611111166161161161166611111611161616111661661111111666111161661611666166616611111116111611661661616616611666166616611161116666616111116666166111611117916611661111666166166661666666666666611666111611666166166661616116611666661616111116166661161666661166616616166161111111666617666661111161111111666111111111161166111161061166611666611116161661116161116666661116611666111666611611116616911166111111161116661661111611166666616611611666616666611166161661611611661111196661116616666116666616116166666161661666166661161661166111616611166116666611666999999999999996666111616166911661166661611166666666616166111116619996666666666661166611616111111111111661166666666666666666611161611111996666111111611111111661111111111166661666616661666666666661119611111111166116611161666116161166666116666161111111166111966611111116611111666111111111611616666616616111116111166111161611611166661611111111166116111661111
114203164325FLORIDA 20001DIAZ-BAL   7911611111116161111111166661661116661116111911116111111161116961666199111611116161111111611111166161161161161661111111161666111111111116666611111111161161111616111116166116111111111116666666661166666666666611161116116611161111166161116166111111161611161666616161166611166111666666666666111116661616106666661616166116661161661116111116666666666616666666666661166111116616111111111166611116111166666666666666611116666666116616116191661119111611616611111669666166616161111111116666666111116611116111111611161116166161666111116111111161111111611161611691111111161666161111611116119117911116661666661611611666666666666166116161116111119111611116161111111111116161616661111916611669661111111111111611111111111117111116696616666666111666666666661111666611011111161111166661611111661616661111611111166611999999999911111111111111116666611111161111116111111111161166111111161111111111611111116111111161911911111161111161116166666616666661661111111111611111666666161666661611666166111111111116666611111616661611111111611166666666166661661616166666119911111111111111111111161666666666666116611611116111611991166116111111661111166666166666666666666661666661116161166116161661611116661166666666611111166666111161611111111111111616661111611111111111116661111111111111111116111111111111116116111111111666616111111111116111111116111111911111161
114203214413GEORGIA 10001SCOTT      9966161111661611111661611116696661611661666161111611166116661116111611619911661616111661116666161116661111161611119661616111666691166111161666111116611116616161616611611111111616666661111116616661616611116666666661611111616161166616166611611161661116616111161616611166161161611661161111616166666166601666119916666661666666616161661111166116166611111616916111616661161166666611116611166619111611111111111111666111111111661166661666611111166111161111166111111666616616111661661111111666111161666611666166616699999999999911661661616616611666116616611111116666616111116666166116111117916611661111661166111661666666666666611661111619666166111661611116611666661611111916161661161969991196616616166161111111661119666661111161111111666111111111161166111161011166611616611116111661116161116661111116611666611666699911196619111166119111161116669661111611166666616611699666616661111116111999611691661119116611116611666666666666666116666161661611166661111666166161696611666616666111666111196191111166666111616166611661166661169999999999999999999999996116666666666661166611616111161116611661166666666166666666661161611111666666111611611111111661111611111166661666616661166666666661111611111111166116619161666116111166669116616111111111111111666611111116111111661111111111611116666616616111116111166111161611611166611111111111166116111661111
1142032531 4IOWA    20001KING       7911611111116161111111166661111116161116111611116199911161116661666111111611116161111119611111666661199666116166111111161666111119911116616111161111161161111616111166116116111111111116666661161116666666666611111116116611161611161161116166111111111611169616616161166611116111166166666666161111111616106611661611111116111111161616111116666616666616666166661661116111116616111191111166611116111166666666666666111116666666116616116111161111111611616611111166666166616161111111116666666111116611116111111611167116666661666111116111761161111111611161111611111111161666661111611666161667911116116666611611611116111111111111116911116999111111611116166111111111116166666611611116611696661111161111111611111111111169999999999999999999999999999999991111666611019911161111169961611111661616661111611111166111666111166111111111911111119666611111111111116111111111161166111111161111111111611111116111111161111111111161911661116166666616666616116111111111611111666666161166611661116166611111111116666611111666161661111111611116166666111111666611166666111111111111111111111111161666666666666116611111111111111111166616611111661111166666166666666166666666666611116111161116111611111116661166666666661111166616111161611111111111111616661111611111111111116661111111111111111116111111111161111166161111111666616111111111116111161116611111111116661
1142032952 2MARYLAN 10001RUPPERSBE  7966161161661616111661611116661111616661666166111111166116661116111611661161661111111661116661161116661611161611111661616111666611166116661666111116616116616111116611661111111616666166666116616661616661666666666661111161616161166611666611111161661116666111161111611166161166666611161111616166666166601666116166666666666666616111661111666666666616666116116611616661166116666666116611166611111611111111111111666111111111661166661666611111166111116111166111111611116616111661666111111666111161661611666166616611111116111611661661616611611666116616611161116666616611116666166111611117916611661111166166116661666666666666611661111999999999999999999999999999999999999999999999999996661196616616166161111111661117666661111161111111666111111111161166111161061166611666611111161661116161116661111116611666111666611611116616111166111111161116661661111611166666696111611666616611111166111661611611611111116611116616666166666666666116616161661611166661161666166111616611166616666611666111166161111166666111616166611661166611161661666666666666666666116116666666666661166611616191111111111661166666666166666666611161611111666666111111611111111661111111116166661666616661699966666661111611111111166996611161666116111166661116616161111111111111666611111116111111661111111191611116666666616111116111166111161611611166611611111111166116111661111
1142033052 8MARYLAN 10001VAN HOLLE  7966161161661616111661611116666661616661666166111611166116661116111611661161661616111661116661161116666611161611111661616111966611166116161666111116616616616161616611611611611616666161111116616661616611116666666661611161616661166616166611611161661116616111161616611166199996611661161111616166666166601666116166666661666666616161661161111116161611111616116116616661161161666666116611166611111611111111111111666611111111661166661666611111166161161161166111111611161616111661661111111666111161661611666166616611111116111611661661616616611666166616611161116666616111116666166111616117916619661111666166166661666666666666661666111611666166166661616116611666661616111116166661161666661166616616166161111111666117666661111161111111666111111111161166111161061166611666611116161661116161116666161116611666111666611611116616111166111111161116661661111611199996616611699999999999999999999991611611661111116611116616666616666616116166666161661666166661161666166111616611166616666611666111166161111166666111616166611661166661616161666666616166611116616116666666666661166611616111161111911661166666666666666666611161611111966666111111611111111661111111111166661666616666666666666661116611111111166116611161666116161166666116616161111111166111666611111116111111666111111111611616666616616111116111166111161611691166661611111119966116111999111
114203312310MICHIGA 20001MILLER     7911611111116161111111166661111116161116111611116111111161116661666111111611116161111111611111666661111161161661111111161666111111111196666611111111161161111616111166166116111111111116666661161116161166661111111116116611161111161161116166111111111611161666616161166611116111166116666666161111111611106166161611161116111166161616111111666616166611666666661661111111116616111111111166611111111116666666666666111111666616616616116111661111111611616611111166666161616161111111116666666111116611116111111611161116166166666111116111111161111111611161611611111111161616661111611666111117911116166666666611611166116666666166116111116111111111611116161111111111116161666661111116611666661111111111111611111111111119999999999999999999999999999999991111166611011111161111166661611111661616161111611111166111666111166111111111911111116666611111111111116111111111161166111111161111111111611111119111111161111111111161111161116166666616666111116119999999999111666666161666611661161166611111111116666611111669999999999111611116166616111111661611166666119991199991111111111111161666666666666116611111111111111111166116111999661111116666166666666666616666666611116161661116161111111116661166666666611991166666111161619911111111111616661111611999111111116661111111111111111116111991111111116116111991111666616199111111116119999999999999999111161
1142033333 2MINNESO 20001KLINE      7911611111116161111111166661111116161116111611116111111161116661666111111611116161111111611111666661111161161661111111161666111111111116616611111111161161111616111166116116111111111116666661161166166666661111111116116611161111161161116166111111161611161666616161166611166111166111666661111116111611106111666611161116111111161616111116666616166616666666666661111111116616111111111166611111111166666666666666111116666666616616116111661111111611616611111166666166616161111111116666666111116611116111111611161116166661666111116111111161111111691161611611111111161666661111611666111117911116616666111611111166166666666666116111116111111111611116161111111111116161666661111116611666661111111111111611111111111117111116666616666666111666666666611111666611011111161111166661611111661616661111611111166111666111166199911111111111116666611111111111116111111111161166111111161111111111611111116111111161111111111161111161116166666616666616116111111111611116616666161666611161166166111111111116666611111616161611111111611166166616111111661666166666111111111111111111111111166666666666666116611111111111111111166116111111661111166666166666666116666666666611116111161116111661111116661166666666111111166666111161611111111111111616661111611111111111116661111111111111111116111111111161111116111191199999999911111111116111191116111111111111161
1142033612 5NEW JER 20001GARRETT    7911611111116161116116166661111116161116111611116111611161116661666111116611116161111116619111616661116161116161161111161666111161111166616161161111161161111616111166116616699111111691116661161116161116661111111116116611161616161161116166111111111611161666616161166611616111166111661611111111111611106166661111161116111111161616111116166611161161666611166661666611116661111611111166611116111166666666666666111111666666116616116111166111111661999991111166666166616161111111116666666111166611116111111611161116166661666111116111161161111111611161611611111111161666661111611666161167911116116666611611661116111111111111116111666111111111611116161111111111116161666661911116616666661111161111111611111111111967111116666616666666111666666666611111666611011111161111166661611111661616661111611111166111666111166111111119111111116666611111111111116111111111161166111999961111111111611111116111111161111111111161111661111166666611111116616116111111611116661616161166611161111166619111111116666611111616166611111111611116166111111111111111111661111111111111111111111191161666616666666116611111111111111111166116111666661111166666166616666116666666666611116111111111111111111116661166666661611111166616111161611111111111111616661111611111111111116661111111111111111116111611111111111166111611111666616111111199999991111116699991111116161
1142033766 2NEW MEX 20001PEARCE     7911611111116191116116966661111116161116111611116111611661116661666111116611999999911111611116166661116666116161111111161666111161111166666611111111161161111616111116116116111111111616666661161166166666661111111116116611161111161161116166111111161611161666616161166611616111166166666666161116111616106111661611111116111111161616111616666616166116666661661661696611116616111611111166611116111166666666666666611116666166116616116111166111111661616611111166666169916161111111116666666111166611116111111611161116166661666111116111161161111111611161611611111111161666661111999996111167911116111666111611161116161161611611116111616111111111611116161111111111111161666661111116616666661111161111111611111111111917111116666616666666111666666666611111666611011111161111166661611111661616661111611111166111666111166111111111699911116666611111111111116119911111161166111111161111111111611111116111111161111161111161111661111166666616666616116116111111611116616666161166611661111166611111111116666611111666161611111111619166166661111661661616666666111111111111111111111111966666666666666616611111111111611111116116111666661111166666166666666116666669999999999999999999999999999999999999999999999111166616111161611111111111161616661111611111111111116661111111111111111116111111111111111166161119111666616111111111116111111116611111111116661
1142034047 1NORTH C 10001BUTTERFI   7966161161661616111661611116666661616661666166111111166116661116111611661161661616111661116661161116661691161611111661616111666611166111161666111116616616616161696611611191111616666161111116616661616661166666666661611161616161166616166611611161661116616111161696611166161166611661161111616166666166601666116166666661666666616111661111111116666611661116116116616661161166666666116611166611111611111111111111666111111111661166661666611911166111161161166111111661616616999999999999999966111161661611666166616611111116111611661661616616611666166616611161116666616111116666166111616117916616661611666666111661666666666666611666111611666166166661616116611666661611111116161661161966661166616616166161111111666117666661111161111111666111111111161166111161069999611666661116161661116161116661611996699999999999999911116616111166119111161916661661111691166666616611611666616661611166161661619611661111116611116611666616666616116166666161661666166661111666166161616611666616666611666111166161111166966111616166611661166661616166666666616666616116619996666669999999966611616111161111111661166666666666666666611161611111696666111119611161111661111111111166661666616661666666666661111611111111166996611161669116169966666116616161111111166111666611111116611111666111111111611996666916616111116111166111161611611166661691111111166116111661111
114203422410OHIO    20001TURNER     7911611111116161116116166661111116161116111611116111111661116661666111116611116161611111611116666669999991161661999111161666111161119166666611111111161161111616111166166116111111111616666666661166166666666611161116116611161111161161116166111111661611161666616161166611661111666666666666661116111616106666666616166666661166666616111616666616666616666666666661161111116616111111111166611111111166666666666666611116666666666616116111661111111611616611111666666166616161999111116666666111116611116111111611161116166661666111116111111161111111611161611611111111161666661111111116111117911116666666666611661666666666666166116111116111111111611116161111111111116161666661111116611666661199911111111611111111111617111116666616666666111666666666611111666611011111161111166661611111661616661111911111166111666111166111111111611111199666611111111111116111111111161166111111161111111111611111116111111161111161111161111661116166666616666611666111111111611116616666161666611661666166111999911116666611111616666611111111611166166666116111661666666666111111111111111111111111199999999999999999999999999999999999999999999111661111166666166666666116666666666661116111116111661661611116661166666666611111166666111161611111111111161616661111611111111111116661111111111111111116111111111161111116111111111666616111111111116111111116111111111111161
114203432413OHIO    10001RYAN       7966161161661616999999999999999999999661666166111111166616661116111611666161991616611661116666161116666611161611999661616111666669966196161666119996616616611161616611661611611616666661111116616666666666116666666661611161616161166611166611611161666116616111161616611166691166611661161111616166666161601666116166666661666616616161661661611116166611111616116111696661161161666666116611166611111611111111111111666611111111611166661666611111166111161161166611111611161616111661661111111666111161661699666166616611111116111611661699616616611666116616611111116666616111116666166111616117996611661111666166666661666666666666611161111911661166161661611116611666661616111111161661161666661166616616166161111111661619999961111161111111666911111111161196111161066166611666611116161661116161116661161116611666111666611619916616699966111111161116661661111611166666616611611666616666111166161661611611661111116661116616666616666616116166666161661616166661161661166661616611166116666611666911166161111166966161616166611661166661666166666666616666616116116116666666666661166611616111161111111661166666666666666666611161611111666666111111611111111661111111111166661666616661666666666661116611111111166116611161666116991166666119666161111111116999666611111116611111661111111111611996666616616111116111166111161619611166661611111111166116111661611
1142034453 4OKLAHOM 20001COLE       7911611111116161111111196661111916161116111611116111111161116661666111111611116161111111611111666661111161161661111111161666111111111116666111111111161161111616111166116116111111111116666666161166166666666611161116116611161111161161116166111111661611161666616161166611166111666666666166161116111616106666661616161666661116161616111116666616666616666666666661111111116616111111111166611111111166666666666666611116666666616616116111661111111611616611111166666161616161111111116696666111111611116191111611161116166666666911116111111161111111611161611611111111161666661111111116111117911116166666166611661166166666666666116111119111111111611116161111111111116161699699111116611666691111111111111611111111111119111116666616666666111666666666611111666611011111161111169661611111661616661111611111166191666111166111111191111119116666611111111111116111111111161166111111161111111111611111116111111161111111111161111161116166666616666616616119911111611116616666161666611661666166111111111116666611111616666611111111611116666666111111661616666166111111111111111111111111169666666666666116611611111111111111166116111111661111166666166666666166666666666661116111161116161661111116661166666666611111169666111161611111111111111616661111611111111111116661111111111111111116111111111111111116111111111666616111111111116111111116111111111111161
114203461418PENNSYL 20001MURPHY     7911611111116161111111166661111116161116111611116111111161116669666111111611116161111111611119666161111161161661111111161666111161111116666611111111161161111616111166166116111111111116666666661166166666666111111116116611161111161161116166111111111611161666616961166611161111666116666661111111111616106666661611116666661111166616111616666611166616666666661661161111116616111111111166611111111166666666666666111116666666616616116111661111111611616611111666666166616161111111116666666111116611116111111611161116666661666111116111161161111111611161611611111111161666661111611666111167911116666666666611661666666666666166116111116111111161611116161111111111111161666661111116611666961111111111111611111111111117111116666616666666111666666666611111616611011111161111166661611111661616661111611119166111666111166111911111611111116666611111111911116111191111161166111111161111111111611111116111111161111111111161111166111166666616666611666111111111611111616666161166611161116166611111111116666611111616166611911111611116666616111111661616166666111111111111111111111111166666666666666116611119111111111111116116111111661111166666166666666161666666666611116111166116111111911116661166666666611111166616111161611111111119111616661111611111111111116661111111111111111116111111111111116116111111111666616111111111116111111116111111111111161
1142035154 7TENNESS 20001BLACKBURN  7911611111116161111111166661111116161116111611116111111161116661666111111611116161911111619111616661111661116999111111161666111116111116616111111111161161111999911166166116111111111116666661161116161166661111111116116611161111161169116166111111111611161666616199966611116611166161666666161111111611106111661611111116111111161616111116166616166116666666661161116111116616111111111166611116111169666666666666111116666666116616116111661116111661616611111166666166616161111111116696666111116611116111111611161116166661666111116111161161111111611161111611111111161666661111611666161167911116116666611611661116611111111111116111616111111111611116161111111111116161666661611116616666661111161111911611111111111167111116666616666666111666666666611111666611011111161111166661611111661616661111611991166111666111166111111111199999999999999991111111116111111111161166111111161111111111611111116111111161111111111161111661111166666616666616116111111111611116611616161166611661111166611111111116666611111666161619911111611116166611111111111616166666111111111111111111111161161666666666666116611111111111111111166116111111661111166666166666666116666666666611116119161116119111111116666166666666611111166616111161611111111111111616691111611111111111116661111111111111111116111991111111111166161111111666616111111111116111161116611111111111161
1142035249 5TEXAS   20001HENSARLIN  7911611111116161111111166661111116161116111611116111611161116661666111111611116161111111611111666661111161116166111111161666111111111116616111111111161161111616111166116116111111111116666661161116161166661111111116116611161111161161116166111111111611161666616161166611116111166116666666161111111611106111661611111116111111161616111116166616166616666666661161116111116616111111111166611116111166666666666666111116666666116616116111166111111611616611111166666166616161111111116666666111116611116111111611161116666661666111116111161161111111611161611611111111161666661111611666161167911116116666111611611116111111111111116111166111111111611116161111111111116161666661111116616666661111161111111611111111111117111116666616666666111666666666611111666611011111161111166661611111661616661111611111166111666111166199911119911111116666611111111111116111111111161166111111161111111111611111116111111161111111111161111661111166661616696616116116111111611116611616161166611161161166611111111116666611111616161611111111611116166161111111661616166666111111111111111111111111161666616666666116611111111111111111166116111111661111166666166666666116666666666611116111161116111111611116666166666666611111166616111161611111111111119616661111611111111111116661111111111111111116111111111111111166161111111999999911911111116111111116111111111116161
114203534919TEXAS   20001NEUGEBAUE  7911611111116161111111166661111116161116111611116111611161116661666111111611116161611111611111616661111666116166111111161666111111111116616111111111161161111616111166116116111111111116666661161116161166661111111116116611161111161161116166111111111611161666616161166619916611166166666666161111111611106111661611111116111111161616111116166611161116666666661161166111116616111111111166611116111166666666666666111116666666116616116111996111111661616611111166666166616161111111116666666111166611916111111611161116666661666111116111161161111111611161111611111111161666661111611666161167911996116666611611661116111111111111116111166111111111611116161111111111116161666661111116616666661111161111111611111111111617111116666616666666111666666666611111666611011111161111166661611111661616661111611111166111666111166111111111111111116666611111111111116111111111161166111111161111111111611111116111111161111111111161111161111166666616666616116111111111611116611666161166611661111166611111111116666611111666161611111111611116166111111111661616166666111111111111111111111111161666666666666116611111111111111111166116111111661111166666166666666116666666666611116111161116111111611116666166666666111111166616111161911111111111111616661111611111911111116661111111111111111116111111111111111166661119911666616111111111116111111116111111111116666
114203554926TEXAS   20001BURGESS    7911611111116161116116166661111116161116111611116111611661116661666111116611116161611111611116616661116166116166111111161666111166111166619111111111161161111616111166116116111111111611116661161116161116661111111116116611161616161161116166111111111611161666616161166611616111166116616161161111111611606111661611161116111111161616111616166661111111666161661161166611116611191611111166611116111166666666666666111116666166116616116111661116111611616611111666666166616161161111116666666111116611116111111611161116666661666111116111161161111111611161111611111111161666661111611666161167911116166666116611611116111111111111116111166111111111611116161111111111116161666611111116616666661111161111111611111111111617111116666616666666111666666666661111666611011111161111161661616111661616661111611111166111666111166111611119611111116666619111111111116116111111161166111111161111111111611111116111111161111169111161111661111111161611119616116111111111611111611616161166611161111166611111111116666611111666161611111116611116161111111111611111111111111111111111111111111161161666616666666116611111111111111111166116111666661111166666166666666111666666666611116111161116111111611116666166666666611111166616111161611111111111161616661111611111111111116661111116111111111166111111111911111166161111111666616111111111116111111116111111111111161
114203564931TEXAS   20001CARTER     9900000000000000111111166661111116161999999991116111111161116661666111111611116161911111611111666661116161161166111111161666111116111116616611111111161161111616111166166166111111111116666661161116161166661111161116116611161111161161116166111111111611161666616161166611166111166666666666161116111616106666661611116116661161161616111116666666666616666666666661116111116616111119991166611111111166666666666666111116666666116616116111166111111611616619999999999999999999999999999999999999999999116111111911161119666661666111116111161161111111611161611611111111161666661111611666161117911116166666611611611116111111111111116111116111111111611116161111111111116161666661111116611666661111161111111611111111111117111116666616666666111666666666611111666611011111161111166661611111661616661111611111166111699111166111111111111191116666611111111111116111111111161166111111161111111111611111116111111111111111991161111161111166666616666616116111111111611116616666161166611661666166111199111116666611111666661611199111611166666661111111661616666666119111111119999999911111161666666666666116611661111111111111166116111111661111166666166666666166666666666661116111161116111111611116661166666666611111166616111161611111111111111616661111611111111111116661111111111111111116111191111111111166119111111666616111111111116111111116111111111111161
1142035767 1UTAH    20001BISHOP     7991611111116161111191166661111116191116111611116111111161116661666111111611116161111111619111616661111161116161111111161666111119911116616611111111161161111916111166116116111111111116666666161166161166661111161116116611161111161161116166111111161611161666616161166611116111166111661611111111111616106111661611111116111111161616111116666616666616661661166161116111116616111111111166611116111166166666666666611111666666116616916111169111111911616611111166666166696199111111116666666111116611116119111611161199999999999911116119161161111111611161911611111191961666661111611666161167911116116666111611611116111111111111116111116111111111611116161111111111116161666661611116611666691111161111111911111111111117111116666616666666111666666666611111666611019111161111161661611111661616661111611111166111666111166111111911111111116666611111119999999991111111161166191111161111111191611911116111911161119111111161111161111166696616666611116111191111611116611666161166611661111166111111111116666611111616661611199991611166166166111111661666666666111119111111111111111911161666616666666116616111111111111111166116111119669111166666196666666111666666666661116111161116111111111116669166666666611119166616111161611111111119119616661111611111911111116661111111111111111116111911111111111166111111111666616111111111116191111116111111111111161
114205017116CALIFOR 10001COSTA      9900000000111111116666966661666661616661166166111111166616616611161111616611661619911661996966161116666611161611111661616111166661196166666666111116611116611161119111611111111616666661116116611661666661666666611111111611616161166616166661111161661116666111161611616166661166661611161611616166661116606666116116666666666666616111611616611116666616661666616611661111111116661166116611166111111616116161111161666111111111661166696166611111111111116111191666691166116616111661661661611696191111661611666116616616116116666111661661616611611666116611611111116666616661611666196111611117916616616616661666116661166666666666611161111111661166111661611116611661661161611111161116111669961166616616161611111111161617666661111161161661199966666666161166616611011161611666611611119661661166111611111116611611666661666111119999999966119111161116661661111619961666616116111616611611111161611961619611911111111111116611666166616666666116666161661611161611611116666661161611666116666616166111166166666619166116916116611661666666161661666666666166616666116116666666666661116611666616161166661611661666666166666661611161611111966666111111661666166661611116116166661616666161696666661661161666111116116116611161666116111196666116661111111111119111666111111116611111666111111111619116666616616111116111196111161611611166611111111111161119999111161
114205044323FLORIDA 10001WASSERMA   7966161999661616999991611116666661616661666166111611166116661116111611661161661616111661116661161116661611161611111661616111666611166111161666111116616616616111699999999911611616999999999999999999999999999999999999911161616191166616166611611161666119999999999916611166161166616611166161616666666166601666166166666661666616616161661161111116666611111616616616611161161166666166116611166611111611111111111111666611111111661166661666611199966111161161166111111661666616111999661111111666111161661699666166616611111116111611661661616616611666166616611161116666616111116666166111611117916611661111666166166661666666666666611666111111666166161661616116611661661616111116161661161666661166616616166161111111666117666661111161111111666911111111161166111161061166611666611116161661116999999999999116611666111666611611116616111166161111161116661661111611166669999911611666616661619999999661611611661111116611116616666616666616616166666161661666166661161661166111616611166116666611666999999961111166666161616166611661166661611166666666666666616116616116666666666661166611616111161111111661166666666666666666611161611111666666111111611111111661111111111166661666616661666666666661116611111111166116611161666116161166666116616161111111166999666611111116611111666111111111611116666616616111116111166111161611611166661611111111166119111661111
